:08000000803102288731FB2F3B
:100C5E0022000C108C100C118C110C128C1208002E
:100C6E00F000F1013D2E00000130F1077008710215
:100C7E00031C422E432E3A2E0800F401F5014F2E8E
:100C8E000F308631372686310130F4070030F53DBE
:100C9E0073087502031D552E72087402031C582E1C
:100CAE00592E472E0800F00022000E110000700889
:100CBE00240091002000911D652E662E612E91114B
:100CCE002400141C6B2E6C2E672E1108F1002200CE
:100CDE000E15710808000030F9000030F8000030E1
:100CEE00F7006430F6008631D826863156308631CC
:100CFE003726863186318A2686318631B12686316F
:100D0E00842E8031022821008C0123008C012200C8
:100D1E008C0121008E1122001D1221000E162200C0
:100D2E009D1121008E1222009D1221000E11220013
:100D3E000E1501302000A300E830A2004830A100BB
:100D4E000030A000E830A4000330A5008731012751
:100D5E0086310800FC01FA01FB01FC017B08031D32
:100D6E00B92EBA2EC52E20002A0886315A26863173
:100D7E00FA0001302000AA070130FB007A08F800C3
:100D8E00F9017808F6007908F70087318B2786314C
:100D9E000130FC0732307C02031CD62ED72EB52E26
:100DAE0008000030FD000030FC000030FB00003079
:100DBE00FA00EE2E2930F2000030F3008631442680
:100DCE0086310130FA070030FB3DFC3DFD3D7908D0
:100DDE007D02031DFC2E78087C02031DFC2E770875
:100DEE007B02031DFC2E76087A02031CFF2E002FB9
:100DFE00E12E0800240094171508F0390A389500E2
:100E0E0020002408F0002508F100F201F301230868
:100E1E00F7002208F6002108F5002008F4008731BB
:100E2E003327873170082000A6007108A7007208CA
:100E3E00A8007308A9000230A936A80CA70CA60CAE
:100E4E00890B232F2608FF3E2400920095160230B0
:100E5E0086313726873108000030FB000030FA005B
:100E6E000030F9000030F800730872047104700449
:100E7E000319422F432F822F0130FC004F2F0130D8
:100E8E00F035F10DF20DF30D890B472F0130FC07F4
:100E9E00F31F522F532F462F0130F835F90DFA0D4F
:100EAE00FB0D890B542F73087702031D682F7208F0
:100EBE007602031D682F71087502031D682F7008D6
:100ECE007402031C6B2F6C2F752F7008F4027108BF
:100EDE00F53B7208F63B7308F73B78140130F33696
:100EEE00F20CF10CF00C890B762F0130FC02031D75
:100EFE00812F822F532F7B08F3007A08F200790896
:100F0E00F1007808F000080086312F268731771817
:100F1E00912F942F22000C14962F22000C10F61BEA
:100F2E00992F9C2F22008C149E2F22008C10761B42
:100F3E00A12FA42F22000C15A62F22000C118C110C
:100F4E000C168C16C830F2000030F30086314426A1
:100F5E00873186312F268731F61AB62FB92F220008
:100F6E000C14BB2F22000C10761ABE2FC12F22009C
:100F7E008C14C32F22008C10F619C62FC92F2200F5
:100F8E000C15CB2F22000C118C150C128C16C830A0
:100F9E00F2000030F30086314426873186312F2649
:100FAE0087317619DB2FDE2F22000C14E02F220062
:100FBE000C10F618E32FE62F22008C14E82F2200D7
:100FCE008C107618EB2FEE2F22000C15F02F22002E
:100FDE000C118C150C168C12C830F2000030F30078
:100FEE0086314426873108002000AA012000863170
:020FFE00722E51
:020000040001F9
:04000E00E201FF3FCD
:00000001FF
